:400000000080002011000000A9010000A901000008B5044B1A6803F53F5302331A6000F0E3F800BFFA46004010B5054C237833B9044B13B10448AFF300800123237010BD48
:40004000B889FF1F0000000098A70000084B10B51BB108480849AFF300800848036803B910BD074B002BFBD0BDE81040184700BF0000000098A70000BC89FF1F0881FF1F53
:400080000000000000B583B00B4800F0D3FB0B4800F0D0FB0A4800F0CDFB0A4800F0CAFB094800F0C7FB094801A900F0CBFB019803B05DF804FB00BFA8A70000BCA7000063
:4000C000D0A70000E4A70000F4A70000FCA7000030B583B062B600F027FAFFF7D3FF0446022813D0032819D001281DD1114800F05DFB114D284601A900F0A4FB0F4800F048
:4001000055FB2846694600F09DFB0DE00C480099019B01FB03F100F049FB05E00848009B0199194400F042FB042CD6D1002003B030BD00BF00A80000FCA7000014A80000DF
:4001400028A80000F8B50C46174600250BE023780A2B02D10D2000F00BFA661C207800F007FA01353446BD42F1DB3846F8BD00BFF8B50F461446002612E000F0E3F905467B
:4001800070B100F0F5F901360D2D03D10A2000F0EFF90A257B1C3D70013C0A2D02D01F46002CEADC3046F8BD08B500F00DFA03680C2B00D1FEE7FEE708B5094B1A681044E6
:4001C000084BC31AB3F5006F02DC054B186005E000F0FAF90C2303604FF0FF32104608BD0C81FF1F108AFF1F08B5104E104D16E029686B68AC68002204E051F8040B43F84B
:40020000040B0432A242F8D1E868002203E0002143F8041B04328242F9D11035013E002EE6D100F0D7F9FFF753FFFEE701000000E0AC000008B5124A124B1A60124A13688E
:4002400043F40073136000230AE0032B03D80F4A52F8231000E00E490E4A42F8231001332F2BF2D90C4B1A780C4B1A70094A0C4B1A6000F0ADF800220A4B1A6008BD00BF28
:400280000004FA050CED00E014ED00E000000000A90100000080FF1FBC7600400481FF1F08ED00E00081FF1FFEE700BFF0B40022174611E050F82760F3B226F0FF0608E081
:4002C00001EB420511F812406D78A5550132013BDBB2002BF4D10137082FEBD9F0BC7047064B1B78DBB203F00701054A11701B09013213704422034B1A707047CF010049EB
:400300006E5800407658004008B50A46002100F0FFF908BD38B51925234B1D80182202331A70022203F27E231A7008224FF040231A70032103F5007319701C4B1B78DBB266
:400340001B490B701B4B1A8041F25122023B1A8000240CE0184B1B7803F0010343EA440404F003044FF4F07000F01EF9013D0DB1032CEFD115B90320FFF796FF0F4B4FF406
:4003800080721A8007221A7000220D490A704820023108701A700222033B1A70094A137843F00103137038BD8040004008010049A1460040224200402542004004400040AE
:4003C00006400040A243004008B500F02BF908BD38B572B6304A137843F00403137000240CE02E4963001A1952000A4423445B00C8589188FFF788FF0134E4B2082CF0D9E8
:4004000000240BE02549A3001A1952000A44906BD16B8022FFF7D8FF0134E4B2002CF1D04FF090401E49FFF741FF1E4A137843F0020313701032137843F0020313701A4C23
:40044000237843F040032370A2F58632513A137843F010031370154815490A22FFF7B4FF144815490822FFF7AFFF144A137843F008031370124D61232B70FFF74BFF812386
:400480002B7001220F4B1A70FFF72AFF0E4821460E22FFF799FF38BDE846004038A800002400004803500140A0430040C0510040D402004812510040E002004822430040B9
:4004C0000048004004000840B04300407222074B1A70202201331A7006225F3B1A70472210331A70002251331A7070478865004010B500F061F804460A4A137843F0200362
:4005000013700132137843F0100313700232137843F01003137000F037F8204600F050F810BD00BF9865004008B5054B1B7823B9FFF7CCFF0122024B1A70FFF7D9FF08BDD9
:40054000D489FF1F084B1B78DBB213F0200F06D0064A1078C0B213F01E0F02D17047002070470020704700BF6965004048650040034B1B7813F0040FFAD1024B18707047CB
:400580006B6500404B650040054A137843F0010313701032137843F001031370704700BFA2430040000000000230800803D000BF01380046FCD17047EFF3108072B67047E5
:4005C00080F31088704700BF014B1868704700BF3885FF1F70B50F4E0F4D761BB61018BF002405D0013455F8043B9847A642F9D10A4E0B4D0AF060FB761BB61018BF0024AF
:4006000006D0013455F8043B9847A642F9D170BD70BD00BFC4AC0000C4AC0000D0AC0000C4AC0000844641EA000313F0030349D1403A23D30B6803604B6843608B68836020
:40064000CB68C3600B6903614B6943618B698361CB69C3610B6A03624B6A43628B6A8362CB6AC3620B6B03634B6B43638B6B8363CB6BC36340304031403ADBD230320BD3A4
:400680000B6803604B6843608B688360CB68C36010301031103AF3D20C3205D351F8043B40F8043B043AF9D2043208D0D2071CBF11F8013B00F8013B01D30B880380604669
:4006C000704700BF082A13D38B07B1D010F00303AED0C3F10403D21ADB071CBF11F8013B00F8013BA4D331F8023B20F8023B9FE7043AD9D3013A11F8013B00F8013BF9D2D7
:400700000B7803704B7843708B7883706046704770B4840746D0541E002A41D0CDB2034602E0621EE4B3144603F8015B9A07F8D1032C2ED9CDB245EA05250F2C45EA0545EA
:4007400019D9264603F11002103E0F2E42F8105C42F80C5C42F8085C42F8045C02F11002F2D8A4F1100222F00F0204F00F041032032C13440DD91E462246043A032A46F847
:40078000045BFAD8221F22F003020432134404F003042CB1C9B21C4403F8011BA342FBD170BC704714460346C2E700BF0FB410B5074B82B004AC54F8042B186823468168B1
:4007C000019400F081F802B0BDE8104004B070473885FF1FF0B5044689B008460D4600F045F8A36802219A89DFF844E000F1010C012704AE0291910404950590CDF80CC00D
:40080000CDF818E00797019606D4596E42F4005221F400519A8159662046194601AA03F07DFD002814BF4FF0FF300A2009B0F0BD84A80000024B01461868FFF7CBBF00BF08
:400840003885FF1F0FB410B5074B82B004AC54F8042B186823464168019402F091F902B0BDE8104004B070473885FF1F20F0030110F00300C0F1000051F8043B00F1040C85
:400880004FEACC0C6FF000021CBF22FA0CF213434FF0010C4CEA0C2C4CEA0C4CA3EB0C0222EA030212EACC1204BF51F8043B0430F4D0C2F1000102EA0102B2FA82F2C2F1F3
:4008C0001F0200EBD20070472DE9F04FBFB01C4689460892074603F015FF03680C9418461593FFF7C3FF16901FB1BB6B002B00F0F480B9F80C2093B29D040AD4D9F86410A6
:4009000042F4005321F40051A9F80C30C9F864109BB2180740F1AB80D9F81020002A00F0A68003F01A030A2B00F0AD8000231A460DF1B80C6446B8461193149317930993CD
:4009400023932293CDF884C012921392089D2B78002B00F0C680252B02D1C2E0252B03D015F8013F002BF9D1089BEE1A7EB1229B239A013308993244072B84E842002392B3
:40098000229300F393800834099B334409932B78002B00F0938000234FF0FF3A1A465646691C6D788DF867300A9306934B1CA5F12001582900F2C083DFE811F05602BE03B0
:4009C000BE039902BE03BE03BE03BE03BE03BE03A0026402BE03F201F002BE036E02750275027502750275027502750275027502BE03BE03BE03BE03BE03BE03BE03BE03FF
:400A0000BE03BE0366032703BE032703BE03BE03BE03BE035F03BE03BE030A03BE03BE03BE03BE03BE03A803BE03BE037F03BE03BE03BE03BE03BE03BE03BE03BE03BE0384
:400A4000BE039403AE02270327032703CC02AE02BE03BE03D302BE03DD02F90184025D02BE030B02BE039500BE03BE0330023846494602F099F8A0B9B9F80C3003F01A03DE
:400A80000A2B7FF453AFB9F90E30002BFFF64EAF38464946089A234601F03AF93FB0BDE8F08F4FF0FF303FB0BDE8F08F4046494621AA07F0EDFF40B92EAC65E7239B23B13B
:400AC0004046494621AA07F0E3FFB9F80C305A06E7D409983FB0BDE8F08F384603F00EFA07E7089D53E70893069BB2469E0640F117830C9F073727F0070303F10802D3E9D4
:400B000000670C92012300229446CDF83CA08DF86720BAF1000F03DB069A22F08002069256EA070240F02A83BAF1000F00F02884012B00F02B83022B00F075842EA9F20852
:400B400042EA4772F80806F0070307461646303356EA070201F8013DF1D1069A0E91D00700F113852EAB5B1A0B930B9A53469245B8BF1346079300231093BCF1000F02D0E4
:400B8000079B01330793069B13F002030D9302D0079B02330793069B13F0840640F0EB820A9B079AC2EB030ABAF1000F40F3E382BAF1100F2399229AB44FC8BF4FF0100BF6
:400BC00007DC1EE0AAF1100ABAF1100F04F1080417DD01321031072A2391229284E88008F0DD4046494621AA07F052FF00287FF46CAFAAF1100ABAF1100F2EAC2399229A23
:400C0000E7DC01320AEB010B072ACDF88CB0229284E8800400F3A4829DF867C00834BCF1000F0FD0229B0BF1010B01330DF167010122072BCDF88CB0229384E8060000F36C
:400C4000BD8308340D9B73B1229B0BF1020B01331AA90222072BCDF88CB0229384E8060000F3B8830834802E00F0FB820F9B0B9AC2EB030ABAF1000F32DDBAF1100F229A14
:400C8000834F22DD10265B4606E0AAF1100ABAF1100F04F1080417DD01321033072A2393229227606660F0DD4046494621AA07F0EFFE00287FF409AFAAF1100ABAF1100F71
:400CC0002EAC239B229AE7DC9B460132D344072ACDF88CB0229284E8800400F363830834069BDB0500F16682229B0B9901330E9A8B44072BCDF88CB022606160229300F343
:400D000080830834069B59073AD50A9B079A9D1A002D35DD102D229B5C4F1EDD10265A4604E0103D102D04F1080415DD01331032072B2392229327606660F2DD404649460E
:400D400021AA07F0A5FE00287FF4BFAE103D102D2EAC239A229BE9DC93460133AB44072BCDF88CB022932760656009DD4046494621AA07F08DFE00287FF4A7AEDDF88CB0EA
:400D8000099B079A0A998A42ACBF9B185B180993BBF1000F40F0EA82002322932EACD5E51946069840F0040006901D78FEE50893069BB24613F0200300F015810C9F073787
:400DC00027F0070303F10802D3E900670C92002399E60C9A089313684FF0000B0E938DF867B0171D002B00F07E86002E0E98C0F230865946324603F0C3FF002800F0AF8686
:400E00000E9BCDF83CB0C31A0B930C9723EAE3730793CDF840B09DF867C0AEE608931D4BB2461493069B8DF86720990640F14F810C9F073727F0070303F108020C92D3E9E7
:400E40000067069BDB0740F1078356EA070300F00383069A302342F002028DF868308DF86950069202234EE6002A40F031851D78194620229AE5069941F0200106911D78B6
:400E8000194693E51D7819462B228FE5DCA8000088A80000BCA80000069941F0800106911D78194682E5A5F13000002113F8015B01EB810100EB4101A5F130000928F5D99D
:400EC0000A9174E50C9A0699089330238DF86830B44BB2467825166841F002010432149306910C9200278DF8695002230BE6069941F0010106911D78194657E50C9D296808
:400F000008460A912946002801F10401C0F26F850C911D78194649E50893069BB24699068DF8672040F1BC800C9F073727F00707D7E9002307F1080116461F460C91002A0F
:400F400073F10003C0F2E6839DF867C0CDF83CA00123DEE5069941F0400106911D78194624E51D7806996C2D00F03A8541F01001069119461AE50893069B8DF867209A066B
:400F800040F175840C9A134604330C93099B1168DF171A463B46C1E90023D7E41D78591C2A2D00F09E86A5F1300009280B464FF000063FF6FCAC13F8015B06EB860600EB08
:400FC0004606A5F130000928F5D946EAE676EEE40893069BB24643F010030693069B13F020037FF4EBAE069A12F0100240F08182069B13F0400300F07C820C9913460A4692
:4010000004320E8800270C927DE50893069B0C9F1B07B2468DF86720B34607F1070740F10B8427F0070303F108020C921A685B68129213931399129804F028FE0128139960
:40104000129840F075830022002308F0EDFF002840F06B859DF867C0534A544B069E472DD8BF1A460321002026F0800607910F9006960E920B9110907FE5069941F008015A
:4010800006911D78194691E40893069BB24643F010030693069B8DF8672099063FF544AF069BDA0640F1D3830C9A13461E680433F7170C9332463B4641E708933C4BB246FE
:4010C0001493069B8DF8672099063FF5B1AE069BDA0640F1F1830C9A00271346043316680C93AEE60C980893026800238DF89020024601219C4604328DF867300F93109352
:4011000024AB07910C920B910E933CE50893069BB24643F010030693069B9E063FF5E9AC069BD80640F1BA830C9A134604321E68002701230C92E6E408938DF86720002DFC
:401140003FF4BCAC002301229C468DF867300F93109324AB07928DF890500B920E9312E54046494621AA07F093FC00287FF4ADAC9DF867C02EACDDF88CB050E5012B7FF474
:40118000DAAC002F08BF0A2E80F0E4810DF1F80B30360BF8416D2EABCBEB03030B93CDF838B0E2E4BCA800009CA8000098A80000A8A80000652D40F38A8012981399002269
:4011C000002308F027FF002800F04981229BBA4901330BF1010B0122072BCDF88CB0229384E8060000F3858308341B9B119A934203DB069BDF077FF585AD229B169901333B
:40120000159A8B44072BCDF88CB022606160229300F3F4830834119B5D1E002D7FF772AD102D229BA54F40F3E28010265A4604E00834103D102D40F3D98001331032072B3F
:401240002392229327606660F2DD4046494621AA07F01EFC00287FF438AC2EAC239A229BE7E70A9B079A9E1A002E7FF7FFAC102E229A924F1FDD4FF0100A5B4604E0103E06
:40128000102E04F1080415DD01321033072A2393229284E88004F2DD4046494621AA07F0F7FB00287FF411AC103E102E2EAC239B229AE9DC9B460132B344072ACDF88CB02A
:4012C00022922760666000F318820834CEE4119B229D012B0BF1010605F1010540F3C7810E9A0123072D239622602295636000F3D7810834169A0135159B1644072D239648
:4013000022952360626000F3D7810834002312981399002208F07EFE119B002840F0F1800E9A013B013501321E44072D226022952396636000F3D5810834179A013506EBB1
:40134000020B1DAB072DCDF88CB02295626023607FF7D7AC4046494621AA07F099FB00287FF4B3AB2EACDDF88CB0CBE44046494621AA07F08DFB00283FF40EADFFF7A5BBA5
:40138000002B4AD1069BDA0747D50DF1F80B30230BF8413D2EABCBEB03030B93CDF838B0FFF7E3BB4046494621AA07F071FB00287FF48BAB2EACDDF88CB091E44046494677
:4013C00021AA07F065FB00287FF47FAB2EACDDF88CB037E44046494621AA07F059FB00287FF473AB2EACDDF88CB03CE493460133AB44072BCDF88CB02293276065607FF76B
:4014000080AC4046494621AA07F042FB00287FF45CABDDF88CB02EAC74E42EABCDF82CA00E93FFF7A2BB14980DF1B80B330943EA0773390906F00F020F461E46835C0BF8F5
:40144000013D56EA0703F1D15A462EAB9B1ACDF838B00B93FFF789BB0223FFF754BB1B9D002D40F35282119A109913468A42A8BF0B461D460E99002D01EB020A0CDD0A46C0
:40148000229BAB440133072BCDF88CB084E82400229300F305830834109B002DA8BF5B1B002B1D4640F38B80102D229B034F40F3148210265A4608E0D8A8000088A8000019
:4014C0000834103D102D40F3078201331032072B2392229327606660F2DD4046494621AA07F0D6FA00287FF4F0AA2EAC239A229BE7E70C9900270A4604320E680C92FFF7E2
:4015000002BB03F1FF3ABAF1000F7FF716AFBAF1100F864FC8BF4FF0100B07DCD8E00834AAF1100ABAF1100F40F3D28001351036072D2396229584E88008F0DD404649467B
:4015400021AA07F0A5FA00287FF4BFAA2EAC239E229DE5E70DF1B80BCDF81CC0304639460A22002308F020FE3032304639460BF8012D00230A2208F017FE06460F4656EA5F
:401580000703EBD1DDF81CC05EE7302B00F042820E9B2EA8013B1A460E93821A30230B9201F8013CFFF7E1BA4046494621AA07F06FFA00287FF489AADDF88CB02EAC0E9AB0
:4015C00010991B9B0A441646119A934240DB069AD5073DD4119AC6EB0A05D31A9D42A8BF1D46002D2F460BDD229AAB440132072ACDF88CB084E8C000229200F38782083407
:40160000002FB4BF1D46DD1B002D7FF77BAB102D229B464F7FF7EBAE10265A4604E00834103D102D7FF7E2AE01331032072B2392229327606660F2DD4046494621AA07F0BB
:4016400027FA00287FF441AA2EAC239A229BE7E7229A1698013215998344072ACDF88CB021606060229200F331820834B2E7069BD8073FF535AE0E9A0123072D239622601B
:40168000229563607FF758AE4046494621AA07F0FFF900287FF419AA2EAC239E229D4CE64046494621AA07F0F3F900287FF40DAA2EAC239E229D1DE64046494621AA07F032
:4016C000E7F900287FF401AA2EAC239E229D1DE601355644072D2396229584E880047FF72BAE4046494621AA07F0D2F900287FF4ECA9239E229D2EAC1FE64046494621AAA3
:4017000007F0C6F900287FF4E0A92EACDDF88CB0FFF7ACBA4FF02D0C764267EB47078DF867C0CDF83CA00123FFF7F3B988A8000004F0ACFA002800F02D8125F02003BAF132
:40174000FF3F0B9300F07882472B05D1BAF1000F14BFD3464FF0010B069B43F480730F93139BB3F1000A129B0793B7BF5346002303F1004A2D23662D0D9300F07381462D10
:4017800000F070810B9B0220452B14BF5F460BF101071BA98DE8810002911CA81FA90390079A53460491404601F00AFB672D0E9002D0472D40F06681069BDB0740F15982BF
:4017C0000E9BDE19079851460022002308F022FC002840F0C2811F9B9E4206D930215A1C1F9219701F9B9E42F9D80E9A9B1A11930B9B472B1B9B00F0A981652D40F3BB814E
:40180000662D109300F02882119B109A934200F31682069BD90700F13C8222EAE2730B920D9A002A40F0878107930F9B9DF867C006930F92FFF7A1B927F007073B681293F4
:401840007B68139307F108030C93FFF7F3BB069B0C9A13F0400F13463FF428ACB2F900600433F7170C9332463B46FFF768BB069BDB060BD4069B5F0608D50C9A1368043204
:401880000C92BDF824201A80FFF760B80C9A136804320C92099A1A60FFF758B8069B0C9A13F0400F13463FF441AC16880432002701230C92FFF727B9069B0C9A13F0400F93
:4018C00013467AD00433168800270C93FFF7B9BA19461D78FFF76AB893460133AB44072BCDF88CB02293276065603FF75DAE083465E64046494621AA07F0CAF800287FF409
:40190000E4A82EACDDF88CB06FE4229BB04901330BF1010B0122072BCDF88CB0229384E8060050DC08342DB9119B1BB9069BDE077FF5E8A9229B1699013315980BEB0102CF
:40194000072B239284E80300229300F3688108346D42002D6FDD102D9E4FC8BF102605DCAAE00834103D102D40F3A68001331032072B2392229327606660F2DD4046494668
:4019800021AA07F085F800287FF49FA82EAC239A229BE7E7904A914B069E472DD8BF1A46032126F080060F900791069610900E920B919DF867C0FFF7E0B80433166800278A
:4019C0000C93FFF73EBA4046494621AA07F060F800287FF47AA82EAC1B9DDDF88CB0A2E741F0200106915D78591CFEF7DFBF0A980C9140420A901946FFF7D3B9404649462B
:401A000021AA07F045F800287FF45FA82EACDDF88CB000E40E9A2EAB9B1A0B93FFF7A5B84046494621AA07F033F800287FF44DA8239A229B2EAC1198013302EB000B0E9AAC
:401A4000072BCDF88CB02293226060607FF759A9D7E4CDF83CB0FEF709FF0C970B900346FFF7D4B903201BA98DE8010802911CA81FA90390079A53460491404601F0A0F95B
:401A80005F460E900E9BDE190B9B462B7FF49AAE0E9B1B78302B00F0EE801B9F3E4491E64046494621AA06F0F3FF00287FF40DA82EACDDF88CB0EFE401332A44072B23926A
:401AC000229327606560ABDC0834B4E74046494621AA06F0DDFF00287EF4F7AF2EAC1B9BDDF88CB076E53346062E28BF06230B9323EAE373DDF838C00793394B0C97CDF888
:401B00003CC0CDF840C00E93FFF737B84046494621AA06F0BDFF00287EF4D7AF1B9B119ADDF88CB0D31A2EAC6AE52D239C468DF86730FFF791BA07930F9B4FF02D0C069340
:401B400000238DF867C00F93FFF71AB8DF1C11DB9B450FDB1093672556E6334645E626EAE6730F900C9710909DF867C007930B96FFF703B8023D013B002B1B93BABF5B420F
:401B80002D222B22092B8DF874508DF8752040F386800DF183000146124A82FB0326DA17C2EBA60606EB8602A3EB42023032092E334601F8012DEFDC0A463033DEB202F819
:401BC000016D904240F2A0800DF176020B460DE0D8A8000088A80000A4A80000A0A80000D0A800006766666613F8016B834202F8016BF9D121AB5B1A0DF1760213441DAA09
:401C00009B1A119A1793012A13440B9357DD0B9B002201330B93109223EAE37300E64046494621AA06F034FF00287EF44EAF2EAC1B9D239A229B8BE64FF0060B8CE5109B38
:401C4000002BD8BFC3F10206119BC8BF0126F3180B9323EAE373E3E5002B39DDBBF1000F25D1069BDE0722D4109A22EAE2730B92D6E51F9BB9E5079851460022002308F01C
:401C8000C9F900287FF409AFC7F101071B973E4498E5109B01330B9323EAE373C0E5303330228DF877308DF876201EABA7E7109B0BF1010633440B9323EAE373B0E5069B6A
:401CC00013F00103A3D110930B9B23EAE373A7E5BBF1000F12D1069BD8070FD401230B939EE50C9D28462E680430002E5D780C90BEF65CAE4FF0FF36FEF758BE0BF102032D
:401D00000B9323EAE3738BE50DF1760377E700BF2DE9F04588464F6EADF26C4D1997D8F81C70B1F80CE0B1F80EA00797D8F824701AAC4FF480652EF0020E002669460094F1
:401D4000049402950595ADF80CE0ADF80EA0099706960546FEF7B8FD041E07DB2846694602F026F8B04218BF4FF0FF34BDF80C305B0605D5B8F80C3043F04003A8F80C30AF
:401D800020460DF26C4DBDE8F08500BF2DE9F04F8A468989ADF52D7D8E040290039309D4DAF8643041F4005123F40053AAF80C10CAF86430164616F8011B002308930693CB
:401DC0009B460793DFF85C84119179B3D8F8000043185B7803F0080303F0FF055BB3DAF80430029C1A4612E0DAF80030D8F800101A7801330A445278150710D5DAF8042035
:401E00000BF1010B013ACAF80030CAF80420002AEADC2046514603F0B1FE0028E4D03246164616F8011B11910029CFD107980DF52D7DBDE8F08F252940F082802C46537887
:401E4000711C782B00F2B982DFE813F09300B702B702B702B702B702B702B702B702B702B702B702B702B702B702B702B702B702B702B702B702B702B702B702B702B70297
:401E8000B702B702B702B702B702B702B702B702B702B702B7027900B702B702B702B7023002B702B702B702B702B7025A025A025A025A025A025A025A025A025A025A026B
:401EC000B702B702B702B702B702B702B702B702B702B70235027902B7027902B702B702B702B7027402B702B7026B02B702B702B702B702B702B702B702B7026202B702A4
:401F0000B7029902B702B702B702B702B702B702B702940292027902790279028D029900B702B702AF02B7027E027C02AB02B702B702A802B702A102B702B70262020E4652
:401F4000DAF80430002B40F34085DAF8003016F8012C197891427FF469AFDAF804200133013ACAF80420CAF800300BF1010B324656E74FF0FF300DF52D7DBDE8F08F0E4680
:401F8000A64B0327089300230693DAF80430002B40F39E816B0610D5013F032F00F2BE80DFE817F0E3009200220016020298514603F0E4FD002840F09281D8F80010DAF895
:401FC000002001E0CAF80020137801320B445B781807E1D5DAF804300BF1010B013B002BCAF80430EEDCE1E754AA4FF00009099217464A46631EB3F5AE7F86BF6FF4AE7161
:4020000063180023994688BF40F25D145B469346B446069E45F45865DAF800100878A0F12B024D2A00F2E180DFE812F02A01DF002A01DF00DF00FE00CA00CA00CA00CA005F
:40204000CA00CA00CA003A013A01DF00DF00DF00DF00DF00DF00DF00250125012501250125012501DF00DF00DF00DF00DF00DF00DF00DF00DF00DF00DF00DF00DF00DF005D
:40208000DF00DF00DF002F01DF00DF00DF00DF00DF00DF00DF00DF00250125012501250125012501DF00DF00DF00DF00DF00DF00DF00DF00DF00DF00DF00DF00DF00DF0045
:4020C000DF00DF00DF002F01002C08BF4FF0FF3415F0010340F0C083ED0640F13B831D46D8F80010DAF80020137801320B445B78180737D4DAF804300135013BAC428AE839
:402100000C002FD0002BEFDC0298514603F036FD40BBD8F80010DAF80020E5E7002C08BF012415F0010340F04683EA0640F12A841D46029F0BE01A44CAF800203846514681
:402140001D44E41A03F01AFD002840F015849AE80C00A342EFDB1B1B2244CAF804302544CAF80020AB4432465AE6002C08BF4FF0FF34EB0640F1BC82DAF80010002514AFB5
:402180000B780131FB5CB3B1DAF804300135013BAC428AE80A00E5D0002BF1DC0298514603F0ECFC0028DDD1DAF800100B780131FB5C002BE8D1002D3FF438AEAB44D2E77E
:4021C000174A25F4386532F91660DAF804203870013A002A07F10107CAF804203EDD0131CAF80010013C7FF417AFEA050696D94666469B4607D5099B9F4200F2D983099B1F
:402200009F423FF413AE15F0100400F04C83099B3246FF1A4F44BB4402E600BFD16D0000ECA800003C85FF1F2A05CED516B945F4007508266A0500F15E8325F46075B9F17C
:40224000000F02D009F1FF390134DAF804200BF1010B013A002ACAF80420C0DC02985146CDF810C0069303F089FC069BDDF810C00028B7D0B9E70A2EB7DD25F43865A4E7B8
:402280002A06B2D525F080059FE705F4C062B2F5007FAAD125F4007545F4A065102694E7A34A32F91660082EE7DC9EE7737845F010050E46C4E50E4645F001059D4B03272F
:4022C00008930A230693DAF80430002B3FF762AE0298514603F052FC00283FF45BAE079A002A3FF446AEBAF80C3013F0400F134618BF4FF0FF3318460DF52D7DBDE8F08F2F
:4023000004EB840403EB4404303C73780E4697E50E4645F40075884B032708931023069333E60E4645F00105834B03270893082306932AE6737845F002050E4680E50E4620
:40234000042722E60E46EFE7EC060E463FF567AD680740F15383039A136804320392A3F800B032465CE5737845F004050E4667E50E46A3E70E4645F04005002705E614A8D2
:4023800003F0C2FC45F0400506460127FDE56A4B0E4608930A2306930327F6E50E460227F3E50E4645F40875B5E773786C2B00F01F8345F001050E4642E503445B780E46FA
:4023C00003F00303012B7FF479AF45F0010575E7029802F097F9631E0268B3F5AE7F0D9240F283816FF4AE72A31840F25D140C93002754AB0A9699463A463E4609930F976A
:402400000E970B9745F4F065DAF800000178A1F12B0EBEF14E0F00F23B81DFE81EF07B0039017B00390139016F004F004F004F004F004F004F004F004F004F0039013901D4
:402440003901390139013901390134013901390139011D01180139013901A00039013901390139018F00390139013901390139018400390139013901390180003901390113
:402480003901390139013901390134013901390139011D01180139013901A00039013901390139018F0039013901390139013901840039013901390139018000D74215D148
:4024C00025F4C07589F8001009F10109DAF80410013C013900290BF1010BCAF8041040F3E4800130CAF80000002C8DD104963B461746049A0A9E002A41D0F3E0EB05DDD513
:402500000C9B25F080050136002BDFD0013B0C930134DBE72B06E9D525F08005D2E7072AE4D10822CEE7062AE0D10722CAE700BFECA80000D16D0000B9700000002F40F09C
:40254000C8802EB905F4E06EBEF5E06F00F04582012A01D0042AC9D10132D2B2B2E7002A40F0B080002E40F0B98005F4E06EBEF5E06F00F026823B46174604960A9E013BBA
:40258000012B40F2C9827B1E062B1BD8022F40F2D282032F16D03C1FE4B2E7430A954F444D46A146029C15F8011D2046524606F0C9F9BD42F7D14C460BF1FF3BA9460A9D7B
:4025C000C4EB0B0BEA051CD56B0500F1C38219F8011C09F1FF3365290BF1FF340BD0452909D00298524606F0ADF919F8021CABF10204A9F1020302985246A346994606F029
:40260000A1F915F010027FF40AAC05F4C063B3F5806F89F8002000F0E4810E9B002B40F08F8100220999029803F03AFCEF0702460B4640F14A810398016804300390C1E97C
:402640000023079B324601330793FFF7E9BB022A7FF44CAF032235E705F4A06EBEF5806F04D06B057FF542AF002E84D0AB0504D40B9BCDF83C90F31A0E9325F4F06545F4F2
:40268000C07500261EE7012F7FF430AF022719E70D9B93F800E08E457FF428AFAB057FF525AF25F420750B960CE702985146049203F064FA049A00287FF418AF002C7FF4EE
:4026C000A3AE13E7032A3FF447AF052A3FF444AF0CE7022F7FF43CAF0327F3E63B46174604960A9E25F4807549E700230C937FE6039A14AF134615680433A9460393DAF816
:4027000000301A78591CBA5CC2B1DAF80420CAF80010013ACAF804201B78013C09F8013B0CD0DAF80430002BE9DC0298514603F025FA0028E3D0A9453FF4D1ADB9EB0505A6
:402740003FF474AB079A00230132079289F80030AB4408E5039A1568171DA946DAF80010D8F800200B78481C13445B781B0715D4DAF80430CAF80000013BCAF804300B7842
:40278000013C09F8013B09D0DAF80430002BE5DC0298514603F0F2F90028DFD0079AC5EB0905013200230792AB44039789F800303246FFF735BB12AB184600210822099306
:4027C000FDF7A6FF15F010030A9300F0AA80002319460B960E460025A9460A9D54AFCDF810B001F089FF48453FF479AD9AE80A00099A11F801EB013B09F1010BCAF8001020
:40280000029800923146CAF8043007F809E05B463A4602F071FA411C3FF461AD002840F0A38005B93560049B013C5B440493002D40F09F80A9460436DAF80430002B63DD05
:40284000002CCED1DDF810B00B9E0A9B002B3FF4F8AE3246FFF7E4BA12AB1846002108220993FDF755FF15F0100947D011AD002217460496DAF80030D8F800201B78134468
:402880005B781E0702D4002C40F0EE80049EB9F1000F7FF4C4AA079BC5F80090013307933246FFF7BDBA2246069B3C7002980999089CA047AB063BD5039A13680432039282
:4028C0001860079B01330793A1E4AC073FF5B3AECDE90423039B1D1D1C6803F0D7F9DDE90423002800F0BB801046194607F00CFC03952060A5E625F4B06566E4039A134622
:40290000043315680393B2E70298514603F036F9002895D04D46DDF810B00B9E002D94D0DDE4039A1368194613460433039350E76C077CD5039A1368043203921880C0E7F7
:402940000F9C0A230298611C04F042FAA1460E9BC21A0DF2A323994528BF0DF2A2294846854903F011FA5CE602307FF45CAFD94662E74FF000095FE7002D3FF4B0ACAB448B
:40298000FFF7F1BB039D234629680298CDF800A0012201F0D3FA2B46043300283FF49FAC079A83440132079203933246FFF738BA7B1E17F8011C029852461F4605F0C2FF71
:4029C0001DE425F4F06501227CE50298514603F0D5F800283FF4B9AA81E425F4F065012770E50B9A049B9B1A5A42002BB1D118E6B37845F002050236FFF722BAE9070DD463
:402A0000AA070BD5039A134611685A4604330393D317C1E900233246FFF702BA039A136804320392C3F800B03246FFF7F9B915F001027FF441AFA9077FF53EAF4F4B089923
:402A4000029899420999069B00F0938004F04EFA039A136804320392C3E9000131E703F08FF903952060ECE501F046FEB8423FF436AC9AE80A0011F8012B0DF5A87ECAF864
:402A8000001009997E1C013B009102980EF80720CAF8043029463346724602F02DF9471C3FF41DACC0B9286001F014FE40B33746049E002F3FF4EBAE54ABDC190495254620
:402AC000029C013F204615F8011D524605F03AFF002FF6D1049DDAE6023019D13746DAF80430002B3FF7C6AE0298514603F046F800283FF4BFAE049E002F7FF4F0ABC6E621
:402B0000B344013CB9F1000F04D104354F46E6E72868C9E70746E2E7099B99457FF686A919F8011D0298524605F00CFF099B9945F6D1FFF77BB9099B99457FF677A919F8C0
:402B4000011D0298524605F0FDFE099B9945F6D1FFF76CB9099B99457FF668A919F8011D0298524605F0EEFE099B9945F6D1FFF75DB904F03BFB6BE710A90000B9700000B4
:402B800030B5044685B040B1856B35B903930292019101F0B3F901A90EC9204605B0BDE83040FFF7F3B800BF38B52F4B054618680C4610B1836B002B36D0A28993B2180785
:402BC0000CD52069A8B113F001021ED0636900225B42A361A260F0B1002038BDD9063AD5580724D4206942F00803A3819BB20028E9D103F42072B2F5007FE4D02846214641
:402C000001F084FDA3892069DDE7990758BF6269A2600028E0D1A3891A06DED543F04003A3814FF0FF3038BD01F068F9C5E7216B49B104F14003994203D0284601F096FAF7
:402C4000A28900232363206922F02402002392B284E80900C7E742F0400209232B604FF0FF30A28138BD00BF3885FF1F024B13B1024800F005B8704700000000113F0000DB
:402C8000014600200246034605F022BF2DE9F04F03690F6983B09F4200F38B80013F01F1140600F1140A56F827305AF827200133B2FBF3F8BB00009306EB03095344019320
:402CC000B8F1000F3DD000231C46B446D6461A465CF804BBDEF800501FFA8BF34FEA1B4B03FB08220BFB08F303EB124392B2A41A1FFA83FBAAB22244CBEB154404EB22447A
:402D000092B242EA0442E1454EF8042B4FEA24444FEA1342DCD2009B5AF803308BB9019C231F9A450CD254F8043C4BB9A4F1080302E01A68043B1AB99A4507F1FF37F8D3E7
:402D40000761044602F02EFB00282EDB00235546194608F1010856F8042B2B6890B2081A120C99B2C2EB1343421803EB224392B242EA0342B14545F8042B4FEA2341EAD239
:402D80005AF827200AEB87037AB91A1F92450BD253F8042C42B9083B02E01A68043B1AB99A4507F1FF37F8D32761404603B0BDE8F08F002003B0BDE8F08F00BF0000000039
:402DC0002DE9F04F016C99B00446CDE90223259D41B1426C012393408B604A6002F0AAF800232364DDE90223002B994636DB00232B60A54B1A4609EA0303934217D0DDE9F8
:402E00000267002200233046394607F003F9804600282BD0249A01231360269B002B00F0CB809A481860013819B0BDE8F08F42F20F73249A1360029B002B00F0A680944876
:402E4000269B002BF0D0C378002B00F0B78000F10803269A136019B0BDE8F08F039A012322F000492B60CDF80C90C2E717AA16AB8DE80C00204632463B4602F0B3FB5FEA01
:402E80001955834640F08A80DDF85880179D6FF4826345449D42C0F295827E4A05F21243521B09FA02F9029A22FA03F049EA000006F0D2FD0123013DA1F1F8711293002281
:402EC000754B06F08BFC6AA3D3E9002306F03AFE69A3D3E9002306F083FC064628460F4606F0CAFD66A3D3E9002306F02BFE02460B463046394606F073FC06460F4607F0BD
:402F0000BBF83946059000223046002307F08CF8002840F0A481059B162B00F29D81DDE9022305985D4901EBC001D1E9000107F099F8002800F05082059B013B0593002387
:402F40000C93C5EB0805B5F1010A00F19F8100230693059B002BC0F290819A440B9300230993229B092B2BD8052B40F37786043B22930025229B023B032B00F25586DFE885
:402F800013F0CF03C103B0026A06414B444AC9F31300002814BF1846104651E7C7F3130343F07F51CDF848803046A5F2FF3541F44011DDF8588082E73A4835E7C31C48E79D
:402FC000002161642046229101F08CFF4FF0FF33229A07930D9301230890239220640A93179B002BC0F2D080059A0E2A00F3CC802A4B03EBC203D3E90089239B002BC0F260
:403000009283DDE9026742464B463046394606F0C3FE07F031F8824606F02EFD42464B4606F090FD02460B463046394606F0D6FB079E089F0AF13005012E3D7002460B469C
:4030400007F1010562D00022174B06F07BFD0022002306460F4606F0DDFF002840F08180CDF808B0DDF820A0DDF81CB006942AE061436F63A787D23FB3C8608B288AC63FF4
:40308000FB799F501344D33F0000F07FD9A8000028AA00000EFCFFFF0000F83F48AA00001CAA0000D8A80000000024400022C84B06F048FD0022002306460F4606F0AAFFB2
:4030C000002840F0E08342464B463046394606F063FE06F0D1FF044606F0CEFC42464B4606F030FD02460B463046394606F076FB04F1300605F8016BCAEB0506B34502461B
:403100000B46D3D1A246DDF808B0069C1046194606F066FB06460F464046494632463B4606F082FF48B94046494632463B4606F071FFB0B11AF0010F13D015F8018C6B1E5B
:40314000089904E08B4200F0458413F8018DB8F1390F03F101051A46F4D008F10103DBB213702046594601F0E5FE0022059B2A70249A01331360269B002B00F04A830898AC
:403180001D6019B0BDE8F08F0A9A002A00F08480229A012A40F30983079B5F1E099BBB42C0F2AF83DF1B079B002BC0F2A584069D079B069A20461A44012106929A4401F0C5
:4031C0009FFF064665B1BAF1000F09DDAA455346A8BF2B46069AED1AD21A0692C3EB0A0A099B002B1ADD0A9B002B00F08383002F10DD31463A46204602F02CF806465A46DB
:403200003146204601F086FF80465946204601F091FEC346099BDA1B40F0A7822046012101F06EFF0B9B8046002B39DD01461A46204602F00FF8229B8046012B40F39B825D
:403240004FF00009D8F8103008EB8303186901F009FFC0F120002DE001230C9371E6059806F00AFC32463B4606F0D4FE00287FF452AE059B013B05934DE6069A059BD21A43
:403280005B420993002306920B936AE6CAF1000306934FF0000A5CE6099F069D0A9E91E7229B012B40F3B8824FF000090B9B002BC8D10120504410F01F0000F08180C0F161
:4032C0002003042B40F3C184C0F11C00069B0544034406938244069B002B05DD59461A46204602F007F88346BAF1000F05DD41465246204601F0FEFF80460C9B002B40F003
:403300006D82079B002B40F39B820A9B002B71D1DDF82090079F4D4604E05946204601F013FE834658464146FFF7B0FC303005F8010BC9EB0503BB424FF00A024FF0000387
:40334000EBDB089B079A8446012AACBF9B1801331D464FF0000A594601222046CDF808C001F0C8FF4146834602F01CF80028DDF808C040F3FC8215F8012C6B1E089904E0CF
:403380008B4200F0798213F8012D392A03F10105F6D001321A704146204601F0CBFD002E3FF4DFAEBAF1000F05D0B24503D05146204601F0BFFD3146204601F0BBFDD0E669
:4033C0001C2083E7034B029A5B1B02FA03F06FE500002440EEFBFFFF0C90B2E53146002320460A2201F0B0FD0D9B0646002B40F315840793002D05DD31462A46204601F06A
:4034000079FF0646B9F1000F40F0EE82B146089A079B1746013BD3180993029B03F001030A9341465846FFF731FC31460546584601F0B8FF4A4682464146204601F0D6FF88
:40344000C268034605F1300C002A40F0BD8119465846CDF81CC0069301F0A4FF069B02901946204601F066FD029ADDF81CC02AB9229B1BB90A9B002B00F0B083BAF1000F8A
:40348000C0F2578205D1229B1BB90A9B002B00F05082002A00F3BC82099B07F1010A9F4287F800C0554600F0BF8259460A220023204601F049FD4E458346314620464FF097
:4034C0000A024FF0000300F0798101F03DFD494606460A222046002301F036FD574681469FE701230A93239B002B40F319821F461E460D9307930021172F61640AD901221E
:4035000004235B0003F114008742114602F10102F7D26164204601F0E5FC0E2E089020643FF65EAD002D3FF45BADDDE902230599CDE90E23002940F32682BA4B01F00F02AA
:403540000D1103EBC203E906D3E9006740F1E181DDE90E01B44B05F00F05D3E9082306F01BFCCDE902014FF003088DB130463946DFF8B492EA0705D5D9E9002306F0E2FA2F
:4035800008F101086D1009F10809F3D106460F46DDE9020132463B4606F0FEFBCDE902010C9B43B1DDE902010022A04B06F03CFD002840F0B582404606F05EFADDE90223C4
:4035C00006F0C0FA9A4B002206F00AF9079B0646A1F15077002B00F06881059BDDF81CC013930A9B002B00F026828E4B002003EBCC0353E902238F49CDF850C006F0CCFBF0
:4036000032463B4606F0EAF8DDE90267CDE910013946304606F030FD054606F02DFA02460B463046394606F0D9F8DDE9102330355FFA85F8089D064685F800800F46013541
:4036400006F0F2FC002840F0B98232463B460020764906F0C3F802460B46DDE9100106F001FD002840F0B382DDF850C0BCF1010F40F33A81089BCDF850A0CDF808B003EB06
:403680000C09DDE910ABA0460FE032463B460020664906F0A3F852465B4606F0C5FC002840F090824D4500F01A81504659460022614B06F047FA00225F4B82468B463046BA
:4036C000394606F03FFA0F46064606F0D5FC044606F0D2F902460B463046394606F07EF83034E4B205F8014B52465B4606460F4606F09AFC0028C8D0139BDDF808B0444681
:4037000005932EE500230A93239B059A13440D930133002B079340F30A81079E3746EAE600230A93DFE6079B002B3FF76AAC40F0668240460022414B494606F003FADDE9EF
:40374000022306F085FCDDF81C804646002800F08B80239B089DDB4305934146204601F0E9FB002E7FF427AEFBE45946204601F071FD834652E5029B002B7FF461AD039B12
:40378000C3F31303002B7FF48FAD039B23F000473F0D3F05002F00F01E82069B0AF1010A013306934FF0010980E5129A002A00F0A98103F23343099F069DFAE401F0C4FBC6
:4037C0005746064681462CE601462046CDF808C001F0B0FB0122DDF808C04FE65846414601F0E0FD0028BFF68CAD059F5946002320460A22013F059701F0A6FB0A9B83465F
:40380000002B7FF4EBAD0D9B002B40F3FC8107937EE50898FFF708BB029B002B7FF444ADADE700BF48AA000010AB00000000F03F00001C400000E03F0000244000001440EB
:40384000229B022B7FF761AD079B002B81D141460522204601F078FB80465846414601F0A1FD00287FF775AF059A08993123013205920B704D1C70E7059A312301320592B1
:40388000089A137087E5DDF808B0069C69E4404606F0F2F8DDE9022306F054F90022BE4B05F09EFF0646A1F15077DDE902010022BA4B05F093FF32463B46CDE9020106F0E6
:4038C000D1FB8046002840F0B280DDE90201324607F1004306F0A8FB30B1464639E74446DDF850A0DDF808B0DDE90E23CDE90223FFF776BB5946099A204601F0ABFC83462C
:403900008CE4099B0B9AFB1A1A4409970B92002749E4DDE90E234FF00208CDE9022324E6012623960D96079600216164F2E51E46FAE7002A15DD594601222046CDF808C0B2
:4039400001F0D8FC4146834601F02CFD0028DDF808C040F34D81BCF1390F00F009810CF1010CB24687F800C07D1C4E4613E504D11CF0010F01D0FEE4154615F8013C6A1EAC
:40398000302BF9D007E5059B5D42002D00F0C180DDE90E01824B05F00F0203EBC203D3E9002306F0CFF82D11CDE9020100F030817C4E4FF00208EB0705D5D6E9002306F014
:4039C000C1F808F101086D1006F10806F3D1CDE90201E5E5059A302301320592089A137031231370FFF7BDBB7168204601F07AFA0546336906F10C019A1C92000C30FCF717
:403A000011FE20462946012201F074FC8146FEE4BCF1390F00F0AC800CF1010CB24687F800C07D1C4E46B6E4B2464E4693E44FF00008464618E75A490CF1FF3301EBC30105
:403A40003246D1E9000114933B46CDF854C006F079F8DDE90267CDE910013946304606F00BFB054606F008F802460B463046394605F0B4FEDDF854C0089A3035BCF1010FA1
:403A8000157006460F4602F1010523D0089BCDF808A063445E469A46AB460022424B06F051F88946804606F0E7FA074605F0E4FF303702460B464046494605F08FFE0BF8AF
:403AC000017BD345E9D1B3460F460646149BDDF808A01D440022354BDDE9100105F080FE32463B4606F0A0FA002848D0139B059315F8018CFFF723BB069B079A9D1A0023CC
:403B0000FFF757BB169B099FC3F13603069DFFF750BBDDE90E234FF00208CDE902233FE5079B002B3FF4B3AE0D9D002D7FF7DCAEDDE9020100221C4B06F004F806460F4637
:403B400008F10100CDE9026705F096FF02460B463046394605F0F6FF0F4B002205F040FE059B0646013B1393A1F15077AC4638E53922B2463A704E467D1CFFF7FEBBDDE9A6
:403B800010230020094905F029FE32463B4606F069FA70B9A8E600BF00001C400000144048AA000010AB0000000024400000E03F154615F8013C6A1E302BF9D0139B059305
:403BC000FFF7CFBA4346A0461C46DDF808B0139B0593FFF7B4BAB946FFF768BBBCF1390FC6D0BAF1000F7FF7BCAE05F1310CB8E67FF4B7AE1CF0010F3FF4B3AEABE64FF0D8
:403C000000084646A5E5229B022B04DC0D9BFEE54FF00208C4E40D9B079315E6229B022BF9DC0D9BFFF7E5BB002565642946204601F058F94FF0FF3307930D93012308907A
:403C4000239520640A93FFF7CBB93FF444ABC0F13C00FFF73BBB01230A9355E50125FFF789B900BFAFF300808B892DE9F0419AB20D46110780463CD46A6843F40063002A3E
:403C8000AB8165DDAE6A002E4BD09BB203F48052002192B2D8F80040C8F80010002A5BD02A6D5F0705D569682B6B521A0BB1EB6BD21A4046E9690023B047461C56D0AB892F
:403CC0002A6923F400639BB200212A60DA04AB8169603BD4296BC8F8004011B305F14003994202D0404600F041FA00202863BDE8F0812E69AEB191072C680CBF6B69002349
:403D00002E60A41BAB600AE0324623466F6A4046E969B8470028A4EB0004064404DD002CF2DC0020BDE8F081AB894FF0FF3043F04003AB81BDE8F081AB892A6923F40063FF
:403D40009BB2AB81DB0469602A60C3D52865C1E7EA6B002A96DCE4E701234046E969B047431C024619D0AB89AE6A9AE7D8F800100029E1D01D2907D0162905D0AB8943F06D
:403D80004003AB81BDE8F081AB89296923F400630022AB8185E806009CE7D8F80030002BE1D01D2B01D0162BBED1C8F80040B8E710B5044682B008B1836B53B1B1F90C00F4
:403DC00008B902B010BD204602B0BDE81040FFF74BBF019100F092F80199EFE720B1054B01461868FFF7E4BF034B0449186800F049BC00BF3885FF1F80A80000B13D0000B9
:403E0000014900F03FBC00BFF98B00002DE9F04F074635487D68002407F53B7204230321F863C7F8E412C7F8E822C7F8E04283B02C606C60AC606C66EC812C616C61AC61F7
:403E4000AB81214605F15C000822FCF761FCDFF89CB0BE68DFF898A0DFF89890DFF8988001230922C5F820B0C5F824A0C5F82890C5F82C80ED612146F381B28106F15C00B3
:403E800034607460B460746634617461B46108220193FCF73DFCFD6812200222F661C6F820B0C6F824A0C6F82890C6F82C802146A881EA812C606C60AC606C662C616C61B6
:403EC000AC6105F15C000822FCF722FC019BED61C5F820B0C5F824A0C5F82890C5F82C80BB6303B0BDE8F08F013E0000D55D0000F95D0000315E0000515E0000836B03B1B6
:403F00007047FFF783BF00BF704700BF704700BF38B5084B084DED1AAC1018BFED1805D0013C55F8043D9847002CF9D1BDE8384006F0CEBEDCAC0000E0AC00002DE9F04F36
:403F400002FB03F585B090460393DDF838B0002D48D08946044618B1826B002A00F0A880BBF80C2091B288040AD4DBF8641042F4005221F40050ABF80C2091B2CBF864009F
:403F8000DBF80460002E38DB8B0732463CD4AA4611E03246FCF746FBDBF8002020463244CBF800205946C6EB0A0AB14401F0E6FDE0B9DBF80460B2454846DBF80010E8D80B
:403FC0005246FCF72FFBDBF80410DBF80020CAEB010152440398CBF80410CBF8002005B0BDE8F08F284605B0BDE8F08FCAEB0505B5FBF8F005B0BDE8F08F00208B07024646
:404000000646CBF80400C2D5AA4228BF2A469246DBF800104846FCF705FBDBF80060DBF80420DBF8301006EB0A03CAEB0202019309EB0A07CBF80030CBF80420CAEB050630
:4040400000293ED0002E3ED00BF14000814205D0204600F08BF8DBF8003001930021CBF83010DBF81030DBF814A002934FF0000900E046B3CBF81070CBF81460CBF8007068
:404080005946204601F07AFD029BDBF80410CBF81030019BCBF814A0CBF80030761A0F44CBF804900028E4D0AD1BB5FBF8F096E7FFF724FFBBF80C2091B288043FF560AF09
:4040C00053E7002ECDD1039805B0BDE8F08F00BFF8B50C46224F064600F000FFBB685D6825F00305291B01F6EF7121F47F6121F00F01A1F58054B4F5805F07DB30460021BB
:4041000001F0F0FDBB682B44984204D0304600F0E7FE0020F8BD3046614201F0E3FD01300DD0104BBA6819682D1B45F001053046091B5560196000F0D3FE0120F8BD3046F3
:40414000002101F0CFFDBA68831A0F2BDEDD064C0449246843F00103001B53600860D5E79C85FF1FE489FF1FA889FF1F00294ED02DE9F0410C46804600F0B0FE54F8047C30
:404180006249A4F1080527F00102AB188E6858689E4220F003005AD0FE0758600BD454F8087C01F1080EED1BAC683A44744567D0EF68E760BC601C186468E4070CD4544FDC
:4041C0009C680244BC427CD0D86842F00103E06084606B60AA5003E042F001036B60AA50B2F5007F14D2D20801EBC20301244868921004FA02F29C681043AC60EB60486098
:404200009D60E5604046BDE8F04100F069BE7047530A042B47D8930903F13804600001EB800083683949834243D0596821F00301914202D99B689842F7D1DA68EA60AB60CA
:4042400040469560DD60BDE8F04100F049BEFF07024407D454F8084C2D1BEB68A8682244C36098602B4B42F001001B6868609A428D60C7D3284B40461968FFF729FFC1E72F
:4042800019184968C90709D4D96802449B6842F00100D9608B606860AA50B3E742F001036B60AA50AEE7142B14D803F15B046000B5E74A68A4100120A04002434A601A4672
:4042C000BCE742F001034D610D61EC60AC606B60AA5097E7542B04D8130B03F16E0460009DE7B3F5AA7F04D8D30B03F17704600095E740F25450834204D8930C03F17C040B
:4043000060008CE7FC207E2489E700BF9C85FF1FA485FF1FA489FF1FE089FF1F9368002B00F0B1802DE9F04FB1F80CE083B01EF0080F0C468146164628D00B6933B30EF017
:4043400002081FFA88F0356880B34FF0000BD846DFF8E4A2B8F1000F00F08F80D0454346484628BF5346E1695A46676AB847002840F3A880B36883441B1AC0EB0808B36088
:40438000002BE7D1002003B0BDE8F08F48462146FEF70AFC002840F04681B4F80CE035680EF002081FFA88F00028CED11EF0010B40F09180D846B8F1000F58D01EF4007F95
:4043C000A76862D0B845BA46C0F0C2801EF4906F00F0C08067692169236807EB47075B1A07EBD777581C7F10404487423A463CBF07463A461EF4806F009300F0FB80114684
:40440000484600F0F3F9009B8246002800F00E811A4621690093FCF705F9A289009B22F4906242F08002A2810AEB0300C4F810A0FB1A6761C24647462060A3605246594665
:4044400000F0E8FCA0682268C01BA060404602EB0A032360B36883441B1AC0EB0808B360002B8FD0B4F80CE0B8F1000FA6D1D5F800B0D5F8048008359DE7D5F800B0D5F8E9
:404480000480083566E70020704720682369984203D86269904580F08580474528BF474659463A4600F0B6FCA3682268DB1B3A44A3602260002B49D148462146FFF778FC46
:4044C000002843D0A38943F040034FF0FF30A38103B0BDE8F08F8046834682460090BAF1000F2BD0009B002B4FD0D045434628BF5346206821691F468842D4F808E0626917
:4045000003D90EEB020C63455EDC934224DB1346676A4846E1695A46B847071ED2DDB8EB070829D0B368BB44DB1BC7EB0A0AB360002B3FF427AFBAF1000FD3D10023D5F857
:4045400000B0D5F804A000930835C8E7384681E74746C246206871E71A465946019300F059FCA2682168019BB8EB0708A2EB03020B44A2602360D5D148462146FFF718FC7C
:4045800000289FD1CDF80080CCE758460A21524600F0F6FB002841D001300123CBEB00080093A2E76FF00043434528BF434693FBF2F3676A03FB02F34846E1695A46B84779
:4045C00000283FF747AF7DE762465946CDF804C000F020FC2368DDF804C04846634423602146FFF7E5FBDDF804C000287FF46AAF674694E7484601F0C7F8009B82460028D0
:404600007FF412AF48462169FFF7B0FDA3890C2223F080039BB2C9F8002054E701230AF10108009361E74FF0FF30ACE60C23C9F80030A38947E700BF00FCFF7F2DE9F04135
:4046400010F538771AD0884600267D68BC68013D0ED4A389013D012B06D9B4F90E30013302D02046C04706436B1C04F16804F0D13F68002FE9D13046BDE8F0813E463046A4
:40468000BDE8F0812DE9F84310F538761ED0884607464FF000097568B468013D10D4A389013D012B08D9B4F90E30013304D038462146C04749EA00096B1C04F16804EED13B
:4046C0003668002EE7D14846BDE8F883B1464846BDE8F883FF2807D8044B1B681844407800F00800C0B27047002070473C85FF1F004870477885FF1F014B1868704700BFC4
:404700009885FF1F004870474085FF1F8B899AB212F0020F3CD1F0B50C46B1F90E1091B00029054619DB01AA04F012FB002812DB029B03F47043A3F50057B7FA87F7B3F5A6
:40474000004F4FEA57172AD0A3894FF4806643F40063A3810BE0A3899AB212F0800F43F40063A3810CBF4FF48066402600272846314600F03BF8A38940B31A4A43F08003C2
:40478000EA63A3812060206166619FB911B0F0BD01F1430301220B600B614A617047124BA26A9A42D0D1A3894FF480663343A381E664DCE72846B4F90E1004F079FE0028B8
:4047C000E4D0A38943F00103A381DFE79A05DDD404F1430243F002030121A381226022616161D3E7013E0000315E00002DE9F04F01F10B05162D83B0064627D935F0070517
:4048000000F1B680A94200F2B38000F067FBB5F5FC7F22D2BC4FE80807EBC003DC689C4200F0BC816368E16823F0030323445A68A56842F00102E96030468D605A6000F0E9
:404840004FFB0834204603B0BDE8F08F102900F28F8000F043FB1025DCE7680A00F08F80042800F24781A80938304100A64F07EB8101CC68A14206D10CE0002A80F2828083
:40488000E468A14206D0636823F003035A1B0F2AF3DD013801309C493C6901F1080E744500F07181636823F003035A1B0F2A00F35781002AC1F814E0C1F810E066DAB3F535
:4048C000007F80F02D81DB0801EBC3084FEAA30C4A68012303FA0CF3D8F808C01343C4F808C0C4F80C804B60C8F80840CCF80C408210012494409C4255D8234206D120F068
:4049000003006400234200F10400FAD007EBC008C4468146DCF80C309C4507D135E1002980F24581DB689C4500F02F815A6822F00302511B0F29F2DD1C46DA6854F808CF4A
:4049400045F0010941F001081D44C3F804903046CCF80C20C2F808C07D613D61C5F80CE0C5F808E0C5F80480695000F0B9FA69E7002420460C23336003B0BDE8F08F7E21AD
:404980003F2073E723445A68E16851E723445A68304642F001025A60083400F0A1FA204603B0BDE8F08FBC68636823F00308454504D8C5EB08030F2B00F38C80534BDFF826
:4049C0005CA11A68DAF800302A44013304EB080B00F0518102F580520F3222F47F6222F00F0211463046019201F07CF9B0F1FF3F8146019A00F04881834500F2EF80444B34
:404A0000CB4519681144196000F04381DAF80000DFF808E101301BBFCBEB090B5944CEF80090196019F0070100F00881C1F10800C1F58051814408314A44C2F30B02C2EBCA
:404A4000010A51463046019301F04CF9431C019B00F02D81C9EB0002524442F001021968BC425144C7F808901960C9F80420DFF8A0A016D0B8F10F0F40F2EF806268A8F1A9
:404A80000C0323F0070302F00102E0184FF0050E1A430F2B6260C0F804E0C0F808E000F20A811C4BBC681A68914288BF19601A4B1A689142626888BF196022F003029542A7
:404AC000A2EB050301D80F2B04DC304600F008FA0024B7E645F0010243F00103254462603046BD6008346B6000F0FAF9204603B0BDE8F08F142869D9542800F29880280B7A
:404B00006E304100B2E600BF9C85FF1FE089FF1FE489FF1FDC89FF1FD889FF1FA889FF1F5A0A042A55D9142A00F2A7805B324FEA420C07EB8C0CDCF80810DFF8B881614546
:404B40007FD04A6822F00302934202D289688C45F7D1CA687B68E260A1609460CC60C7E645F0010742F001032544676030464D610D61C5F80CE0C5F808E06B60AA50083441
:404B800000F0AEF95EE64B68B2E609F1010919F0030F0CF1080C7FF4BDAE2CE004F108036469A34208BF02303FF475AE3AE61C461A445168DB6854F8085F41F00101516041
:404BC0003046EB609D6000F08BF93BE65B3041004CE69A0938324FEA420CAAE7BC42454B3FF40DAF9C68626822F0030267E7D8F8008098457CD110F0030FA8F1080300F16E
:404C0000FF30F4D17B6823EA04037B6064009C423FF6C9AE002C3FF4C6AE234248467FF475AE6400234200F10400FAD06EE6B0F5AA7F18D8E80B7730410017E64FF48051DE
:404C4000FAE6D8F8043092104FF0010C0CFA02F21343C8F804300A467DE70123C9F804304C4600222BE740F2545398421CD8A80C7C304100FAE51032B3E6542A23D81A0BEB
:404C80006E324FEA420C54E7BC68626822F0030215E7CBF30B0000287FF4B8AE4244BB6842F001025A60FCE6FC217E20DEE501224FF0000AD3E604F108013046FFF756FAF0
:404CC000DAF80010EDE6B2F5AA7F04D8DA0B77324FEA420C2DE740F254518A4204D89A0C7C324FEA420C24E74FF0FC0C7E2220E77B688BE79C85FF1F2DE9F04383B005467C
:404D00000A9E1446B2B11F46104B8846D3F80090FFF7EEFC41468DE8410022463B462846C847431C03D100228A2332602B6003B0BDE8F083054B1F68FFF7DAFC21468DE839
:404D40004100034A28460123B847EAE7AC89FF1F34A8000082B049B15AB16BB113780B601278101C18BF012002B0704701A9002AF3D1104602B070476FF00100F4E700BF63
:404D8000830770B4C9B240D0541E002A3FD003788B4218BF431C05D11CE0ECB10278013C8A4217D013F0030F184603F10103F4D1032C14D884B103788B420BD00519431C98
:404DC00002E002788A4205D0AB42184603F10103F7D1002070BC7047204670BC7047024641EA012646EA0646136810467340A3F1013525EA030313F0803F02F10402D9D181
:404E0000043C032C1046EFD8D4E71446D0E71046E0E700BF8842F0B50DD98B1898420AD28118002A54D09A1A13F8014D934201F8014DF9D1F0BD0F2A48D940EA01039B07DF
:404E400047D1154600F1100401F1100353F8106C103D44F8106C53F80C6C0F2D44F80C6C53F8086C04F1100444F8186C53F8046C03F1100344F8146CE8D8A2F1100323F0B7
:404E80000F0302F00F0E1033BEF1030F1944034421D90E4674461D1F56F8047B043C032C45F8047FF8D8AEF1040424F0030404342344214402F0030252B1013B0A4411F8C6
:404EC000014B914203F8014FF9D1F0BD0346F3E7F0BD0346F1E77246EEE700BF704700BF704700BFC26C70B505460C4652B152F824308BB1196842F82410002218461A61F1
:404F0000DA6070BD2122042103F034FEE86402460028ECD1002070BD012101FA04F6721D2846920003F026FE03460028F2D044608660E2E731B1C36C4A6853F822000860DC
:404F400043F82210704700BFF0B50C4605460E6983B001F1140E0027DEF80010013788B2090C02FB003302FB01F198B201EB134300EB0341BE424EF8041B4FEA1343EBDC25
:404F80003BB1A268964207DA04EB8602013653612661204603B0F0BD6168284601310193FFF7A0FF0746226904F10C01023292000C30FBF737FBEA6C6168019B52F82100DB
:404FC000206042F821403C46DEE700BF2DE9F843234C1F46083384FB034EDB17C3EB6E0EBEF1010F06460C469046089D35DD012300215B009E4501F10101FADC3046FFF7A1
:4050000071FF0123B8F1090F4561036121DD04F109094D46444415F8013B0146303B30460A22FFF791FFA542F5D109EB0804083C47450CDDC8EB0707274414F8013B0146AD
:40504000303B30460A22FFF77FFFBC42F5D1BDE8F8830A344FF00908EAE70021CEE700BF398EE338030C1B04B3B90004102310F07F4F04BF0002083310F0704F04BF0001D3
:40508000043310F0404F04BF80000233002807DB420003D4202070470023E8E7581C704718467047036813F0070207D0D90720D49A0720D49B0803600220704799B209B9C3
:4050C0001B0C102213F0FF0F04BF1B0A0832190704BF1B090432990704BF9B080232D90704D45B0801D1202070470132036010467047002070475B0803600120704700BFF2
:4051000010B50C460121FFF7EDFE01224461026110BD00BF2DE9F04F0E69156985B0AE420C469146C0F292802B4635461E46A36805EB060861689845C8BF0131FFF7D2FEC4
:4051400000F1140A0AEB880BDA45019005D25346002143F8041B9B45FBD809F1140909EB860304F11402994502EB850C59D2CDF808B0CDF80C809B46904659F8047B1FFAB6
:4051800087FEBEF1000F1FD047465646002100E00646304657F8045B3468ABB2A2B20EFB03222D0C240C0EFB0544531804EB13419AB242EA0142BC454FEA114140F8042B91
:4051C000E6D8716059F8047C3F0C22D0DAF80030002255461E464046964600E025462C460288360C07FB026699B206EB0E0241EA024344F8043B50F8041B6E68090CB3B2AC
:4052000007FB0131844501EB12434FEA134EE5D86B60CB450AF1040AAFD8DDF808B0DDF80C80B8F1000F0BDD5BF8043CABF1040B1BB105E05BF8043D13B9B8F10108F9D115
:405240000198C0F8108005B0BDE8F08F144689466DE700BF12F003032DE9F041144607460E462DD1A4101CD0BD6C95B3E3074FF0000806D4641014D02868A8B10546E3075E
:40528000F8D5384631462A46FFF744FFB6B17268FB6C641053F82210316043F822600646EAD13046BDE8F08129462A463846FFF731FF2860C0F800800546E0E70646D9E7A8
:4052C0000B4A013B52F823200023FFF73DFE0646C8E701213846FFF705FE40F2712101220023416102610546B8640360BEE700BF38AA00002DE9F0470F694FEA62198B681D
:405300004F447D1C9D420E4614468046496804DD5B009D4201F10101FADC4046FFF7E2FDB9F1000F00F1140109DD00239E460A4601334B4542F804EBFAD101EB830132693E
:4053400006F1140303EB820E14F01F0222D0C2F120094FF0000A1C688C4694404AEA040441F8044B53F8044B9E4524FA09FAF2D8CCF804A0BAF1000F00D0BD1CD8F84C30F8
:405380007268013D53F822100561316043F82260BDE8F087043953F8042B9E4541F8042FF9D8EBE702690B69D21A13D19B0014301431194410B4034401E098420CD253F8C0
:4053C000044D51F8042D9442F7D009D301205DF8044B70471046704700205DF8044B70474FF0FF305DF8044B704700BF2DE9F0470C460546114620469146FFF7D3FF061E73
:405400005DD056DB4FF0000A28466168FFF76AFD09F1140380461E462769D9F8102004F1140E7546C0F80CA000F114040EEB870E03EB820C4FF0000A55F8042B56F8041BEA
:4054400090B200EB0A0388B2090C1B1AC1EB124202EB23429BB243EA0243B44544F8043B4FEA224AA946E7D8AE45264615D959F8040B83B25344000C00EB23419BB243EA48
:405480000143CE4544F8043B4FEA214AEFD8ED43754425F0030404343444043C23B954F8043D013F002BFAD04046C8F81070BDE8F08723464FF0010A4C469946A4E728461D
:4054C0003146FFF70FFD012346610361BDE8F0870F4B0B40A3F15073002B02DD0020194670475B421B15132B4FF000004FF0000109DD322BDDBFC3F13303012202FA03F344
:405500000123184670474FF4002242FA03F170470000F07F2DE9F041056900F1140404EB850555F8047C0E463846FFF79BFDC0F120030A283360A5F1040117DC8C42C0F16D
:405540000B0638BF55F8081C27FA06FE00F1150034BFF140002187404EF07F5341EA070243F4401310461946BDE8F0818C4222D2B0F10B0CA5F1080855F8081C28D0C0F1A8
:405580002B0E444507FA0CF721FA0EF647EA060738BF55F80C0C47F07F5343F4401334BF20FA0EF0002001FA0CF141EA000210461946BDE8F081B0F10B0C08D007FA0CF72A
:4055C00047F07F53002043F440130146EBE761460A4647F07F5343F4401310461946BDE8F08100BFF0B5012183B01C46C3F30A551646FFF777FCC4F3130407460DB144F484
:405600008014019406B302A840F8086DFFF74AFD002830D19DE80C007A61002B14BF02240124BB613C61D5B9089A07EB8403A0F2324010601869FFF715FD099BC0EB441014
:405640001860384603B0F0BD01A8FFF72BFD019B0122144620303A617B61002DE4D0A5F23343089A03441360099BC0F135001860384603B0F0BD019BC0F12001009A03FAFE
:4056800001F10A43C34001937A61C6E72DE9F04383B0884669468146FFF73CFF04460D46404601A9FFF736FFD9F810200646D8F810000F469DE80A00121AC91A01EB421342
:4056C000002B0BDD05EB03510D462046294632463B4604F061FB03B0BDE8F083A7EB03594F46F2E770B4146902F1140301394E1103EB84040136A34200EB86060CD2011F70
:4057000053F8045B9C4241F8045FF9D8A31A153B23F0030304331844864204D9002340F8043B8642FBD870BC704700BF03694A11934210B400F1140410DA04EB83039C4299
:4057400020D253F8040C043B18B114E053F8042D8AB99C42FAD35DF8044B70470FDD11F01F010CD054F8220004EB820320FA01F28A408242E3D001205DF8044B704704EB97
:405780008203DCE70020E6E72DE9F04F174683B00D46002900F0E280814607F10B04FFF79DFB55F8043C162C23F00306A5F108084BD810221446A7424CD8964251DADFF87E
:4057C000A4B308EB0601DBF80800884200F0D380486820F0010E8E44DEF804E01EF0010F54D120F003003044904280F2BD80DB0700F1908055F8083CC3EB080ADAF8043090
:4058000023F0030300EB030E964549DB5746CB688968321FCB60996057F8081FDAF80C30242ACB60996000F23381132A40F2FA802B681B2ACAF808306B68CAF80C3000F204
:405840003B8108350AF11003EDE024F00704002C2246B0DA0C230020C9F8003003B0BDE8F08F2F46321B0F2A03F0010340D83343C8F804304644736843F00103736048468F
:40588000FFF72EFB384603B0BDE8F08FD90741D455F8083CC3EB080ADAF8043023F003033344934236DB5746DAF80C1057F8080F321F242AC160886000F2F580132A40F243
:4058C000F08029681B2ACAF808106968CAF80C1000F2078108350AF1100229681E4611606968D0465160AB689360DAF80430B9E708EB0401234342F00100C8F804300A4498
:4059000048605368083143F0010353604846FEF72DFCB4E739464846FEF768FF07460028ADD055F8043CA0F1080123F001024244914200F0A680321F242A00F29380132AB2
:4059400065D803462A46116819605168596092689A6029464846FEF709FC90E7114603B0BDE8F04FFEF742BFCA6889682F46CA600646916076E7416804F1100021F0030168
:40598000314481425ADADB07C4D455F8083CC3EB080ADAF8043023F0030301EB030C60453FF77EAF5746DAF80C3057F8081F321F242ACB60996000F2B680132A40F2A780EC
:4059C0002B681B2ACAF808306B68CAF80C3000F2B38008350AF110032A681A606A685A60AA689A60C4EB0C030AEB040243F00103CBF808205360DAF80430484603F00103D7
:405A00001C43CAF80440FFF76BFA38463BE72B681B2A03606B68436028D800F1080305F1080290E73B462A6876461A606A68D0465A60AA689A60DAF8043013E70B1B08EBD2
:405A4000040243F00103CBF80820536055F8043C484603F001031C4345F8044CFFF740FA284610E72946FFF7D5F972E7AB68242A8360EB68C3602BD000F1100305F110026B
:405A800061E750F8042C2F4622F003021644E9E6294638467646D046FFF7BCF9DAF80430E0E63A4619E7294638461E46D046FFF7B1F9DAF80430D5E6AB68242ACAF8103090
:405AC000EB68CAF8143018D010350AF11803AAE72A6900F118030261696905F11802416131E7A968242ACAF81010E968CAF814100FD010350AF11802EFE62A690AF12003A4
:405B0000CAF818206A691835CAF81C208BE73B4662E729690AF12002CAF8181069691835CAF81C10D9E629463846CDF804C0FFF771F9DDF804C055E7AB68242ACAF810309E
:405B4000EB68CAF8143003D010350AF1180343E72A690AF12003CAF818206A691835CAF81C2039E79C85FF1F838903F00903092B01D000207047FEF731B900BFF8B50C46C8
:405B8000054610B1836B002B45D0A3899AB2970407D4626E43F4005322F400526266A3819AB200219606616032D4500721D5216B61B104F14003994202D02846FEF7D6FA3C
:405BC000E36B002063602063002B3ED12369002B4BD0A789BEB2B30720D1226928462260256AE1696369A8470028606009DD0020F8BDD1063ED512072AD443F00403A38189
:405C0000E4E7A3891BD0002243F04003A38162604FF0FF30F8BDFEF771F9B6E7194A01231068A381184906F00906FEF707FD092EA781D2D128462146FEF716F8CDE743F0A2
:405C400020034FF0FF30A381F8BDA36B2360F8BD28462146FEF7ACF80028D9D1A389A06023F00803A0619BB2C7E728462146FEF74DFDAEE743F0400309222A604FF0FF30AC
:405C8000A381F8BD80A80000695B000010B431F0004408D0114BA1F580129A4208D804205DF8044B704718B902205DF8044B704701F1FF41094B01F5E0019942EFD9B4F568
:405CC000801F01D20320EBE7054B9C4201D00020E6E7B0FA80F04009E2E700BFFFFFDF7F0000F07F38B5074C0023054608462360FAF762FA431C00D038BD2368002BFBD02A
:405D00002B6038BD0C8AFF1F70B40D785E2D2FD0002216460131431E00F1FF0403F8012FA342FBD185B186F0010242554E1C16F8013C2D2B0ED05D2B09D013B11D463146EB
:405D4000F3E7084670BC7047481E70BC7047304670BC70474C785D2C0FD0A5420DDC023143190135AC4203F8012FFADC0236DEE701224D7816460231CDE731461D46D4E709
:405D8000004870470000C07F0EB4F0B506464FF6FF7E9CB021AC54F8042B0D4923466FF0004508684FF4027702A9029606960194ADF816E0ADF814700495079501F00AFBAA
:405DC000029B00221A701CB0BDE8F04003B070473885FF1F10B50C46B1F90E1003F08EFB002803DB236D0344236510BDA38923F48053A38110BD00BF2DE9F0410C46898976
:405E00001D46CB051646074606D5B4F90E100022022303F05FFBA18921F48051A1813846B4F90E1032462B46BDE8F04102F03CBE10B50C46B1F90E1003F04CFBA389421C83
:405E40000EBF23F4805343F480532065A38110BDB1F90E1002F0BEBE2DE9F0410F469046FFF736FB04460D46B8F1000F11D0C7F30A53C3F16B03002B0BDD1B0503F17F55B2
:405E8000002405F5401522462B4603F05BFEBDE8F08120462946BDE8F08100BF000000002DE9F04F0F469FB083460B4600200021CDE904010392002219971A921C4613F8FB
:405EC000016B2D2E00F2F080DFE816F02E00EE00EE00EE00EE00EE00EE00EE00EE00DD00DD00DD00DD00DD00EE00EE00EE00EE00EE00EE00EE00EE00EE00EE00EE00EE0095
:405F0000EE00EE00EE00EE00EE00EE00DD00EE00EE00EE00EE00EE00EE00EE00EE00EE00EE004400EE00DA00039B4FF000084FF0000953B100230693039B1F60069B23B119
:405F4000414609F1004388469946404649461FB0BDE8F08F00230693631C19936678002EE2D0302E1C4600F0A480002308940A93A6F130034FF0000A092B554623465446EE
:405F800019D8082CC8BF0AEB8A0A05EB850203F1010306EB42021993C4BF06EB4A06A6F1300A1E78D8BFA2F13005A6F13002092A04F10104E5D958460793FEF7A3FBD0F88B
:405FC00000805846FEF79EFB0068FAF74FFC079B02464146184603F0A5FA8046002800F0E480002084468646A146652E73D0452E71D00023B9F1000F47D0B9F1100FC846BD
:40600000CCEB03032846A8BF4FF01008079303F023FD002C08BF4C46B8F1090FCDE9040113DD764B03EBC80353E9122303F08AFD064650460F4603F00FFD02460B4630462F
:40604000394603F0CDFBCDE90401B9F10F0F00F3D780079B002B00F0A580079B40F36785162B00F3D284DDE904230798634901EBC001D1E9000103F065FD804689460DE075
:406080000123069368E7199318E718B90A9B002B00F0A1824FF000084FF00009039B002B3FF44CAF199F47E70023302E06937FF45CAF6378582B00F0A483782B00F0A18345
:4060C000013419942678302EFAD0002EE2D0012308940A934CE7B9F1000F4ED0199F7B1C19937E782B2E00F06D822D2E00F064824FF00008A6F13003092B324600F2028224
:40610000302E06D1199B013319931E78302EFAD03246313A082A3FF66CAF199B19460A46013219920793A6F130034E78A6F1300109290BD80132199203EB830306EB4303A2
:406140001678303BA6F130010929F3D90799521A082A00F3518444F61F629342A8BF1346C8F1000253404344B9F1000F7FF445AF8BE74FF0000C4FF0010E002840F0288208
:406180000A9B002B3FF4D0AE8146A7E76FF0004305934FF0FF3304932B0742BF059B43F000430593DDE9048978E75846FEF7AAFA0068FAF75BFB199B1A1819921E5C002C17
:4061C00040F0E881302E204605D10132199216780130302EF9D0A6F13103082B00F2A082199B303E089300F1010C4FF0010905EB850506EB45050020DAE100BF48AA000051
:40620000079BC8EB09089844B8F1000F40F39A8318F00F000AD0DDE90423C14901EBC001D1E9000103F08EFCCDE9040138F00F0640F0288200230A930095089922464B4686
:406240005846FEF7C3FE1090002800F03B83079A0021002AC2F10003A8BF0B460F460C9322EAE27307910B93109C58466168FEF739FE8246002800F0A582DDE904232146D5
:406280009046994622690C31023292000C30CDE90889FAF7C7F91BA81CA98DE8030042464B465846FFF79EF91A90002800F08B8258460121FEF724FF0746002800F0828213
:4062C0001B9A002AC0F212810C9B0B9903EB02080A981C9B121A1A446FF47F708242C3F1360380F2EC80801A1F28A3EB000300F30281012500228540119208EB0309C145D6
:406300004A46A8BF4246CE180A9B1E44B2421346A8BF3346002B04DDC3EB0909F61AC3EB08080C9BB3B1394658461A46FEF792FF0746002800F04682584639461A9AFEF729
:40634000E9FE0446002800F03D8258461A99FEF7F1FD1A94B9F1000F08DD4A4658461A99FEF7C8FF1A90002800F02D820B9B43B1514658460B9AFEF76DFF8246002800F0D2
:406380002182002E08DD514632465846FEF7B2FF8246002800F01682B8F1000F08DD394642465846FEF7A6FF0746002800F00A8258461A995246FFF719F80790002800F0F0
:4063C0000182079A0026D3683946D6600D93FEF7E9FFB042C0F2208400F0DD8307983946FFF754F900224FF0804304460D4603F025FE002867D00D9B002B00F0A280B146DB
:40640000484DDDF814C0DFF81C810024464E474B0CEA06069E4200F027820A9B23B3B6F1D46F21D83CA3D3E900234846414603F005FEB0B14846414603F046FE8146002822
:4064400000F0268303F008FB814688460D9B002B40F0198308F10043CDF850901593DDE9144505F1D6639D1BDDE90801FFF730F802460B462046294603F064FB02460B4684
:40648000DDE9080103F0ACF90C46CDE904010A9B23B9254B23409E4200F01F8258461A99FEF748FD58465146FEF744FD58463946FEF740FD58460799FEF73CFDD4E6002216
:4064C0001192012519E71A4B20462946002203F039FB0D9B8146884673BB01F100430E900F93DDE90E45DDF814C08FE70B9BDDF83080991AECE60F480125801A05FA00F280
:406500001192FAE619970023B9F1000F7FF475ADBBE500BFAFF300800000C0FFFFFFDF4148AA00000000F03F0000F07F0000E07F0000E03FE3FBFFFF02460B46CDE90E23EF
:40654000CFE7049BDDE90401002B40F0DE80C1F313038C46002B40F0DC801191204629460022B54B03F060FDDDF844C0002840F09883B24B20462946002203F0E3FA81462F
:40658000884601F10043DDF844C016901793DDE916453BE74046A146C446A6F13002092A13D8431C1646002A40F04D821846199B5A1C19925E78F0E74FF00108BB1C19937F
:4065C000BE7897E54FF00008F8E74FF0010E0CE54FF0000982E5BEF1000F7FF4A5AC493E252E3FF6A1AC01A353F826F06B670000295F0000295F0000295F0000295F000000
:4066000033670000295F0000295F0000295F0000295F0000295F0000295F0000295F0000295F0000295F0000295F0000295F0000295F0000295F0000295F0000295F0000C8
:40664000295F0000295F0000295F0000295F0000295F0000295F0000295F0000295F0000295F0000295F0000295F00006B670000295F0000295F0000295F0000295F000050
:4066800033670000B6F59A7F00F31C813611012EDFF8D08140F32383DDE9040147464FF0000A16F0010F0AF1010A4FEA660603D0D7E9002303F046FA012E07F10807F0D133
:4066C000CDE90401059B08EBCA08A3F154730593DDE90423D8E9000103F034FA21F000431B0D574A1B059342CDE9040100F2EA80A2F58012934240F2CF82524B05930023B5
:406700000A934FF0FF33049396E5012800F0C3818C4600244C4D4FF00009DFF81C8175E6652E3FF426AD4FF00009CC464FF0010E5DE41999454809E011F8013FA3F141046A
:40674000192C98BF203393427FF4EEAB10F8012B002AF1D14B1C19934B78282B00F0FD823B4B0593002304931CE5199A394809E012F8013FA3F14104192C98BF20338B42BC
:406780007FF4D2AB10F8011B0029F1D119921546314809E012F8013FA3F14104192C98BF20338B4240F0988210F8011B0029F1D101321992294B059300230493F2E401318E
:4067C00040F0B8821A98254B0022059322230492CBF80030DDE9048901465846FEF7AAFB58465146FEF7A6FB58463946FEF7A2FB58461099FEF79EFB58460799FEF79AFB9C
:406800004CE4069A1AAB01920093584619A9144A1BAB02F001FB10F0070605463FF43AAC062E40F047810134002319944FF000084FF00009069331E40000F03F0000E03FFE
:406840000000A07CFFFFEF7F0000F0BF58AB00000000F8FF4CAB000050AB00000000F07F5CAB000010AB0000ACF154730593DDE9042310461946FEF72BFE02460B46204609
:40688000294603F05FF902460B46DDE9040102F0A7FF21F000431B0DB34A1B059342CDE90401DDE90801CDE9120140F2A980AF4B139A9A4200F0EB81AC4B05934FF0FF3327
:4068C0000493EBE5AA4B0022059304922223DDE90489CBF80030FFF7E1BB4146484603F0CBFB03F0C9F80B4602464146484602F075FF0D9B8046894683B9049B73B9C4F33E
:4069000013045CB992A3D3E9002303F08DFB00283FF4C4ADDDE904891A985DE78EA3D3E900234046494603F07FFB0028F2D18CA3D3E900234046494603F094FB00283FF40A
:40694000ADADE7E73FF476ACC8F1000717F00F020AD0DDE90401874B03EBC203D3E9002303F01AFACDE904013F113FF463AC1F2F39DC17F0100300F0E7816A23002FD8BF3D
:406980000A9314DDDDE904017B4E0A9317F0010F4FEA670703D0D6E9002303F0D3F8002F06F10806F2DC0A9BCDE9040193B1DDE90401C1F30A53C3F16B03002B0ADD1F2BE7
:4069C00040F3E8810022342B049240F3EB814FF05C730593DDE904010022002303F01AFB00283FF429AC2223CBF800304FF000084FF00009FFF752BB44F61F63FFF7B0BB70
:406A0000059B03F15474059441E5079AC9F125039A423FF7F5ABDDE90423564CC9F10F0904EBC901D1E9000103F08CF8079BC9EB030904EBC904D4E9002303F083F8804688
:406A40008946FFF72BBB012B9C4414D0484402E05D00814510D009F1010909F1FF33082B05EB8503F4DDB9F1100FDCBF0AEB8A0A4FEA4A0AEDE74846082800F101097FDCFC
:406A8000199BFFF7B4BB4A464346CDE91423E6E4DFF8E880DAE4DDE904239C46002B7FF438AE2223CBF800301A984FF000084FF0000991E61A9A3AB11CA83521FEF712FEEF
:406AC00058461A99FEF736FA1B9B062E3FF664AB01A252F826F000BF256B00000D6B0000016B0000F56A00008D6100000D6B0000256B00001E4B059300230493FFF74CBBAF
:406B00001C9B04931D9B0593FFF746BB1D9A1C9903F2334322F4801242EA035304910593FFF73ABB002305930493FFF735BB1633FFF666ABDDE90401079A0E4BA3EBC20308
:406B4000D3E9002303F028F980468946FFF7A6BA9535A094FFFFCF3F9535A094FFFFDF3F35E5AF350000E03FFFFF9F7CFFFFEF7F0000F07F48AA000070AB00000000F03FC6
:406B8000B9F1100FD7BF0AEB8A0A199B199B02EB4A0A00200CE50D9EAE46DDE90889002E00F08880DDE90445824BC5F3130199422A4600F0A980119B002B00F08880059A9D
:406BC00013420DD0DDE904010A9A002E00F08A80FFF742F942464B4602F002FE804689460A9BBBB1744B4046139300231293DDE91223494602F0A6FF02460B4680468946E8
:406C0000CDE9042331B9049B23B922231A98CBF80030E1E51A98DFE50D9EDDE90889002EDED1049B002BDBD1DDE90401C1F313030C46002BD4D1059B23F000431B0D1B05A2
:406C4000B3F1D66FCCD9079A536913B91369012BC6DD079901225846FEF74CFB39460790FEF7A0FB0028BBDD0A9B002B40F08780524B2340A3F580136FEA13536FEA03536F
:406C800005934FF0FF330493DDE90489A8E7129B01337FF411AE95E501F154730593FFF7C9BA474B0022CDE91623DDF83490DFF81C816CE4DDE90401C1F313030C46002BE9
:406CC0007FF479AF049B002B7FF475AFCCE7049A1EEA020F84D075E76B1C19936AE54FF0000AEFE4FFF7B8F802460B464046494602F074FD002200238046894603F08AF9D9
:406D000000287FF4CEAE6BE70A9B049913B32B4B2B40B3F1D46F1DD81B0DC3F16B034FF0FF3000FA03F399427FF445AF254B9A423FF445AD214B134003F5801305930023C5
:406D40000493DDE904894BE7002FD8BF0A933FF719AE3FE64FF0FF33E5E719A81A491CAA02F0E4FA05287FF4FBAC1D9B43F0FF4343F4E00305931C9B0493FFF713BA0F4BEA
:406D80002340B3F1D66F3FF775AFB3F15C7F3FF729AF86E64FF0FF3202FA03F3049A1A40049217E6203B4FF0FF3202FA03F30B4005930FE6FFFF0F00000050390000F07FAD
:406DC0000000E0BFFFFFEF7F38AB00000000E03F2DE9F04F444C83460E46D4F800E000E02646344614F8015B0EEB0500407800F0080000F0FF080028F2D12D2D4BD02B2D4D
:406E000004BF7578B41C1BB1102B60D09A4603E0302D54D00A239A46B8F1000F14BF4FF000406FF00040B0FBFAF90027BC460AFB19000CE0303DAB4219DD7E1C05D0CC4500
:406E400024D821D00AFB0C5C012714F8015B0EEB0506767816F0040FECD116F0030606D0012E0CBF37265726AD1BAB42E5DC7B1C16D0C8F100008CEA000040444AB107B14E
:406E8000611E1160BDE8F08F8542DBDD4FF0FF37DBE7BDE8F08FB41C75784FF00108B2E7B8F1000F4FF0220314BF4FF000406FF00040CBF80030002AE2D1BDE8F08F2378AA
:406EC00003F0DF03582B09D008239A46A4E7302D9CD1207800F0DF00582897D14FF0100A65785346023497E73C85FF1F2DE9F04F0C4687B004916F49019205909B462246B4
:406F0000D1F800A000E02A46154615F8014B0AEB04035B7803F0080303F0FF01002BF2D12D2C00F092808C462B2C04BF5478951CBBF1000F72D0BBF1100F00F0A3805E46F3
:406F4000F717BCF1000F72D14FF0FF386FF000494046494632463B46CDF80CC003F024F9404602923B463246494603F01DF9002200234FF0000EDDF80CC0DDF808801BE001
:406F8000303CA3452DDDBEF1FF3F13D0994208BF904253D38B4208BF82424DD002FB07FE06FB03EEA2FB06237344121943EBE4734FF0010E15F8014B0AEB040999F80190A8
:406FC00019F0040FDCD119F003090AD0B9F1010F0CBF4FF037094FF05709C9EB0404A345D1DCBEF1FF3F35D06046DCF100064FEAE07161EB410772407B4012EB0C024B4158
:407000000199002953D0BEF1000F1AD110461946049D019B1D6007B0BDE8F08F302C27D00A2600274FF00A0BBCF1000F8CD04FF000084FF000498BE74445AFDD4FF0FF3E8F
:40704000B8E710461946013DE3E7951C54784FF0010C6DE7BCF1000F19D14FF0FF306FF00041059A22231360019B002BEBD1D2E72B7803F0DF03582B12D0082600274FF0DF
:40708000080B5EE7302C06D01026002759E700204FF00041E5E72B7803F0DF03582BF3D16C781026002702354FF0100B49E710461946B0E73C85FF1F2DE9F04F494C0F4612
:4070C000D4F800E000E027463C4614F8015B0EEB0506767806F0080606F0FF08002EF2D12D2D51D02B2D04BF7D78BC1C5BB1102B5BD04FF0FF39B9FBF3F903FB09FB9A46FB
:407100006FEA0B0B07E0302D43D00A239A46DFF8D8904FF0050B0027BC460CE0303DAB4219DD7E1C05D0CC4524D821D00AFB0C5C012714F8015B0EEB0506767816F0040F14
:40714000ECD116F0030606D0012E0CBF37265726AD1BAB42E5DC002F11DBC8F100008CEA000040444AB107B1611E1160BDE8F08F5D45DBDD4FF0FF37DBE7BDE8F08F222394
:4071800003604FF0FF30EDE7BC1C7D784FF00108ACE7237803F0DF03582B0ED008239A464FF0070B6FF06049B5E7302D0FD09A464FF00F0B6FF07049ADE74FF0100A65785A
:4071C00053464FF00F0B02346FF07049A3E7267806F0DF06582EF0D04FF00F0B6FF070499A4698E73C85FF1F999999192DE9F04F8B46764987B09246049099465A46D1F8A3
:40720000008000E02A46154615F8014B08EB04035B7803F0080303F0FF00002BF2D12D2C00F097802B2C08BF5478039008BF951CB9F1000F1DD0B9F1100F00F09F804E46B8
